{
  "_format": "hh-sol-artifact-1",
  "contractName": "TerraBlock",
  "sourceName": "contracts/terra_block.sol",
  "abi": [
    {
      "inputs": [],
      "stateMutability": "nonpayable",
      "type": "constructor"
    },
    {
      "anonymous": false,
      "inputs": [
        {
          "indexed": true,
          "internalType": "address",
          "name": "previousOwner",
          "type": "address"
        },
        {
          "indexed": true,
          "internalType": "address",
          "name": "newOwner",
          "type": "address"
        }
      ],
      "name": "OwnershipTransferred",
      "type": "event"
    },
    {
      "inputs": [
        {
          "internalType": "uint256",
          "name": "_landId",
          "type": "uint256"
        }
      ],
      "name": "buyLand",
      "outputs": [],
      "stateMutability": "payable",
      "type": "function"
    },
    {
      "inputs": [],
      "name": "getLands",
      "outputs": [
        {
          "components": [
            {
              "internalType": "uint256",
              "name": "id",
              "type": "uint256"
            },
            {
              "internalType": "address payable",
              "name": "owner",
              "type": "address"
            },
            {
              "internalType": "string",
              "name": "lat",
              "type": "string"
            },
            {
              "internalType": "string",
              "name": "long",
              "type": "string"
            },
            {
              "internalType": "uint256",
              "name": "area",
              "type": "uint256"
            },
            {
              "internalType": "uint256",
              "name": "price",
              "type": "uint256"
            },
            {
              "internalType": "bool",
              "name": "forSale",
              "type": "bool"
            },
            {
              "internalType": "string",
              "name": "ipfsHash",
              "type": "string"
            }
          ],
          "internalType": "struct TerraBlock.Land[]",
          "name": "",
          "type": "tuple[]"
        }
      ],
      "stateMutability": "view",
      "type": "function"
    },
    {
      "inputs": [],
      "name": "government",
      "outputs": [
        {
          "internalType": "address",
          "name": "",
          "type": "address"
        }
      ],
      "stateMutability": "view",
      "type": "function"
    },
    {
      "inputs": [],
      "name": "landCount",
      "outputs": [
        {
          "internalType": "uint256",
          "name": "",
          "type": "uint256"
        }
      ],
      "stateMutability": "view",
      "type": "function"
    },
    {
      "inputs": [
        {
          "internalType": "uint256",
          "name": "",
          "type": "uint256"
        }
      ],
      "name": "lands",
      "outputs": [
        {
          "internalType": "uint256",
          "name": "id",
          "type": "uint256"
        },
        {
          "internalType": "address payable",
          "name": "owner",
          "type": "address"
        },
        {
          "internalType": "string",
          "name": "lat",
          "type": "string"
        },
        {
          "internalType": "string",
          "name": "long",
          "type": "string"
        },
        {
          "internalType": "uint256",
          "name": "area",
          "type": "uint256"
        },
        {
          "internalType": "uint256",
          "name": "price",
          "type": "uint256"
        },
        {
          "internalType": "bool",
          "name": "forSale",
          "type": "bool"
        },
        {
          "internalType": "string",
          "name": "ipfsHash",
          "type": "string"
        }
      ],
      "stateMutability": "view",
      "type": "function"
    },
    {
      "inputs": [],
      "name": "owner",
      "outputs": [
        {
          "internalType": "address",
          "name": "",
          "type": "address"
        }
      ],
      "stateMutability": "view",
      "type": "function"
    },
    {
      "inputs": [
        {
          "internalType": "address payable",
          "name": "_owner",
          "type": "address"
        },
        {
          "internalType": "string",
          "name": "_lat",
          "type": "string"
        },
        {
          "internalType": "string",
          "name": "_long",
          "type": "string"
        },
        {
          "internalType": "uint256",
          "name": "_area",
          "type": "uint256"
        },
        {
          "internalType": "string",
          "name": "_ipfsHash",
          "type": "string"
        }
      ],
      "name": "registerLand",
      "outputs": [],
      "stateMutability": "nonpayable",
      "type": "function"
    },
    {
      "inputs": [
        {
          "internalType": "bytes32",
          "name": "",
          "type": "bytes32"
        }
      ],
      "name": "registeredLocations",
      "outputs": [
        {
          "internalType": "bool",
          "name": "",
          "type": "bool"
        }
      ],
      "stateMutability": "view",
      "type": "function"
    },
    {
      "inputs": [
        {
          "internalType": "address",
          "name": "_address",
          "type": "address"
        }
      ],
      "name": "setGovernmentAddress",
      "outputs": [],
      "stateMutability": "nonpayable",
      "type": "function"
    },
    {
      "inputs": [
        {
          "internalType": "uint256",
          "name": "_landId",
          "type": "uint256"
        },
        {
          "internalType": "uint256",
          "name": "_price",
          "type": "uint256"
        }
      ],
      "name": "setLandOpenToSale",
      "outputs": [],
      "stateMutability": "nonpayable",
      "type": "function"
    },
    {
      "inputs": [
        {
          "internalType": "address payable",
          "name": "_newOwner",
          "type": "address"
        },
        {
          "internalType": "uint256",
          "name": "_landId",
          "type": "uint256"
        }
      ],
      "name": "transferLandOwnership",
      "outputs": [],
      "stateMutability": "nonpayable",
      "type": "function"
    },
    {
      "inputs": [
        {
          "internalType": "address",
          "name": "newOwner",
          "type": "address"
        }
      ],
      "name": "transferOwnership",
      "outputs": [],
      "stateMutability": "nonpayable",
      "type": "function"
    }
  ],
  "bytecode": "0x6080604052600060015534801561001557600080fd5b50336000806101000a81548173ffffffffffffffffffffffffffffffffffffffff021916908373ffffffffffffffffffffffffffffffffffffffff16021790555060008054906101000a900473ffffffffffffffffffffffffffffffffffffffff1673ffffffffffffffffffffffffffffffffffffffff16600073ffffffffffffffffffffffffffffffffffffffff167f8be0079c531659141344cd1fd0a4f28419497f9722a3daafe3b4186f6b6457e060405160405180910390a333600260006101000a81548173ffffffffffffffffffffffffffffffffffffffff021916908373ffffffffffffffffffffffffffffffffffffffff160217905550612512806101216000396000f3fe6080604052600436106100a75760003560e01c8063d788f45211610064578063d788f4521461019b578063d7bce658146101c4578063e0c48dc9146101ef578063e261f1e514610218578063f2fde38b1461025c578063fa49c36814610285576100a7565b80632672f526146100ac578063595caec8146100d75780636a137219146101005780636fe0c906146101295780638da5cb5b14610154578063ced395581461017f575b600080fd5b3480156100b857600080fd5b506100c16102c2565b6040516100ce9190611375565b60405180910390f35b3480156100e357600080fd5b506100fe60048036038101906100f99190611418565b6102e8565b005b34801561010c57600080fd5b5061012760048036038101906101229190611484565b6104dc565b005b34801561013557600080fd5b5061013e610595565b60405161014b91906116fa565b60405180910390f35b34801561016057600080fd5b5061016961083a565b6040516101769190611375565b60405180910390f35b6101996004803603810190610194919061171c565b610863565b005b3480156101a757600080fd5b506101c260048036038101906101bd9190611749565b610b42565b005b3480156101d057600080fd5b506101d9610c8d565b6040516101e69190611798565b60405180910390f35b3480156101fb57600080fd5b50610216600480360381019061021191906118e8565b610c93565b005b34801561022457600080fd5b5061023f600480360381019061023a919061171c565b610f56565b604051610253989796959493929190611a1f565b60405180910390f35b34801561026857600080fd5b50610283600480360381019061027e9190611484565b611173565b005b34801561029157600080fd5b506102ac60048036038101906102a79190611ae8565b611314565b6040516102b99190611b15565b60405180910390f35b600260009054906101000a900473ffffffffffffffffffffffffffffffffffffffff1681565b600380549050811061032f576040517f08c379a000000000000000000000000000000000000000000000000000000000815260040161032690611b7c565b60405180910390fd5b6003818154811061034357610342611b9c565b5b906000526020600020906008020160010160009054906101000a900473ffffffffffffffffffffffffffffffffffffffff1673ffffffffffffffffffffffffffffffffffffffff163373ffffffffffffffffffffffffffffffffffffffff16146103e2576040517f08c379a00000000000000000000000000000000000000000000000000000000081526004016103d990611c3d565b60405180910390fd5b600073ffffffffffffffffffffffffffffffffffffffff168273ffffffffffffffffffffffffffffffffffffffff1603610451576040517f08c379a000000000000000000000000000000000000000000000000000000000815260040161044890611ca9565b60405180910390fd5b60006003828154811061046757610466611b9c565b5b90600052602060002090600802019050828160010160006101000a81548173ffffffffffffffffffffffffffffffffffffffff021916908373ffffffffffffffffffffffffffffffffffffffff16021790555060008160060160006101000a81548160ff021916908315150217905550505050565b3373ffffffffffffffffffffffffffffffffffffffff166104fb61083a565b73ffffffffffffffffffffffffffffffffffffffff1614610551576040517f08c379a000000000000000000000000000000000000000000000000000000000815260040161054890611d15565b60405180910390fd5b80600260006101000a81548173ffffffffffffffffffffffffffffffffffffffff021916908373ffffffffffffffffffffffffffffffffffffffff16021790555050565b60606003805480602002602001604051908101604052809291908181526020016000905b82821015610831578382906000526020600020906008020160405180610100016040529081600082015481526020016001820160009054906101000a900473ffffffffffffffffffffffffffffffffffffffff1673ffffffffffffffffffffffffffffffffffffffff1673ffffffffffffffffffffffffffffffffffffffff16815260200160028201805461064d90611d64565b80601f016020809104026020016040519081016040528092919081815260200182805461067990611d64565b80156106c65780601f1061069b576101008083540402835291602001916106c6565b820191906000526020600020905b8154815290600101906020018083116106a957829003601f168201915b505050505081526020016003820180546106df90611d64565b80601f016020809104026020016040519081016040528092919081815260200182805461070b90611d64565b80156107585780601f1061072d57610100808354040283529160200191610758565b820191906000526020600020905b81548152906001019060200180831161073b57829003601f168201915b5050505050815260200160048201548152602001600582015481526020016006820160009054906101000a900460ff161515151581526020016007820180546107a090611d64565b80601f01602080910402602001604051908101604052809291908181526020018280546107cc90611d64565b80156108195780601f106107ee57610100808354040283529160200191610819565b820191906000526020600020905b8154815290600101906020018083116107fc57829003601f168201915b505050505081525050815260200190600101906105b9565b50505050905090565b60008060009054906101000a900473ffffffffffffffffffffffffffffffffffffffff16905090565b60038054905081106108aa576040517f08c379a00000000000000000000000000000000000000000000000000000000081526004016108a190611b7c565b60405180910390fd5b6000600382815481106108c0576108bf611b9c565b5b90600052602060002090600802019050600115158160060160009054906101000a900460ff16151514610928576040517f08c379a000000000000000000000000000000000000000000000000000000000815260040161091f90611de1565b60405180910390fd5b806005015434101561096f576040517f08c379a000000000000000000000000000000000000000000000000000000000815260040161096690611e4d565b60405180910390fd5b8060010160009054906101000a900473ffffffffffffffffffffffffffffffffffffffff1673ffffffffffffffffffffffffffffffffffffffff163373ffffffffffffffffffffffffffffffffffffffff1603610a01576040517f08c379a00000000000000000000000000000000000000000000000000000000081526004016109f890611eb9565b60405180910390fd5b60008160010160009054906101000a900473ffffffffffffffffffffffffffffffffffffffff169050600033905060008273ffffffffffffffffffffffffffffffffffffffff1634604051610a5590611f0a565b60006040518083038185875af1925050503d8060008114610a92576040519150601f19603f3d011682016040523d82523d6000602084013e610a97565b606091505b5050905080610adb576040517f08c379a0000000000000000000000000000000000000000000000000000000008152600401610ad290611f6b565b60405180910390fd5b818460010160006101000a81548173ffffffffffffffffffffffffffffffffffffffff021916908373ffffffffffffffffffffffffffffffffffffffff16021790555060008460060160006101000a81548160ff0219169083151502179055505050505050565b6003805490508210610b89576040517f08c379a0000000000000000000000000000000000000000000000000000000008152600401610b8090611b7c565b60405180910390fd5b60038281548110610b9d57610b9c611b9c565b5b906000526020600020906008020160010160009054906101000a900473ffffffffffffffffffffffffffffffffffffffff1673ffffffffffffffffffffffffffffffffffffffff163373ffffffffffffffffffffffffffffffffffffffff1614610c3c576040517f08c379a0000000000000000000000000000000000000000000000000000000008152600401610c3390611fd7565b60405180910390fd5b600060038381548110610c5257610c51611b9c565b5b9060005260206000209060080201905081816005018190555060018160060160006101000a81548160ff021916908315150217905550505050565b60015481565b600260009054906101000a900473ffffffffffffffffffffffffffffffffffffffff1673ffffffffffffffffffffffffffffffffffffffff163373ffffffffffffffffffffffffffffffffffffffff1614610d23576040517f08c379a0000000000000000000000000000000000000000000000000000000008152600401610d1a90612043565b60405180910390fd5b60008484604051602001610d3892919061209f565b6040516020818303038152906040528051906020012090506004600082815260200190815260200160002060009054906101000a900460ff1615610db1576040517f08c379a0000000000000000000000000000000000000000000000000000000008152600401610da890612135565b60405180910390fd5b6000600380549050905060006040518061010001604052808381526020018973ffffffffffffffffffffffffffffffffffffffff1681526020018881526020018781526020018681526020016000815260200160001515815260200185815250905060038190806001815401808255809150506001900390600052602060002090600802016000909190919091506000820151816000015560208201518160010160006101000a81548173ffffffffffffffffffffffffffffffffffffffff021916908373ffffffffffffffffffffffffffffffffffffffff1602179055506040820151816002019081610ea59190612301565b506060820151816003019081610ebb9190612301565b506080820151816004015560a0820151816005015560c08201518160060160006101000a81548160ff02191690831515021790555060e0820151816007019081610f059190612301565b50505060016004600085815260200190815260200160002060006101000a81548160ff02191690831515021790555060016000815480929190610f4790612402565b91905055505050505050505050565b60038181548110610f6657600080fd5b90600052602060002090600802016000915090508060000154908060010160009054906101000a900473ffffffffffffffffffffffffffffffffffffffff1690806002018054610fb590611d64565b80601f0160208091040260200160405190810160405280929190818152602001828054610fe190611d64565b801561102e5780601f106110035761010080835404028352916020019161102e565b820191906000526020600020905b81548152906001019060200180831161101157829003601f168201915b50505050509080600301805461104390611d64565b80601f016020809104026020016040519081016040528092919081815260200182805461106f90611d64565b80156110bc5780601f10611091576101008083540402835291602001916110bc565b820191906000526020600020905b81548152906001019060200180831161109f57829003601f168201915b5050505050908060040154908060050154908060060160009054906101000a900460ff16908060070180546110f090611d64565b80601f016020809104026020016040519081016040528092919081815260200182805461111c90611d64565b80156111695780601f1061113e57610100808354040283529160200191611169565b820191906000526020600020905b81548152906001019060200180831161114c57829003601f168201915b5050505050905088565b3373ffffffffffffffffffffffffffffffffffffffff1661119261083a565b73ffffffffffffffffffffffffffffffffffffffff16146111e8576040517f08c379a00000000000000000000000000000000000000000000000000000000081526004016111df90611d15565b60405180910390fd5b600073ffffffffffffffffffffffffffffffffffffffff168173ffffffffffffffffffffffffffffffffffffffff1603611257576040517f08c379a000000000000000000000000000000000000000000000000000000000815260040161124e906124bc565b60405180910390fd5b8073ffffffffffffffffffffffffffffffffffffffff1660008054906101000a900473ffffffffffffffffffffffffffffffffffffffff1673ffffffffffffffffffffffffffffffffffffffff167f8be0079c531659141344cd1fd0a4f28419497f9722a3daafe3b4186f6b6457e060405160405180910390a3806000806101000a81548173ffffffffffffffffffffffffffffffffffffffff021916908373ffffffffffffffffffffffffffffffffffffffff16021790555050565b60046020528060005260406000206000915054906101000a900460ff1681565b600073ffffffffffffffffffffffffffffffffffffffff82169050919050565b600061135f82611334565b9050919050565b61136f81611354565b82525050565b600060208201905061138a6000830184611366565b92915050565b6000604051905090565b600080fd5b600080fd5b60006113af82611334565b9050919050565b6113bf816113a4565b81146113ca57600080fd5b50565b6000813590506113dc816113b6565b92915050565b6000819050919050565b6113f5816113e2565b811461140057600080fd5b50565b600081359050611412816113ec565b92915050565b6000806040838503121561142f5761142e61139a565b5b600061143d858286016113cd565b925050602061144e85828601611403565b9150509250929050565b61146181611354565b811461146c57600080fd5b50565b60008135905061147e81611458565b92915050565b60006020828403121561149a5761149961139a565b5b60006114a88482850161146f565b91505092915050565b600081519050919050565b600082825260208201905092915050565b6000819050602082019050919050565b6114e6816113e2565b82525050565b6114f5816113a4565b82525050565b600081519050919050565b600082825260208201905092915050565b60005b8381101561153557808201518184015260208101905061151a565b60008484015250505050565b6000601f19601f8301169050919050565b600061155d826114fb565b6115678185611506565b9350611577818560208601611517565b61158081611541565b840191505092915050565b60008115159050919050565b6115a08161158b565b82525050565b6000610100830160008301516115bf60008601826114dd565b5060208301516115d260208601826114ec565b50604083015184820360408601526115ea8282611552565b915050606083015184820360608601526116048282611552565b915050608083015161161960808601826114dd565b5060a083015161162c60a08601826114dd565b5060c083015161163f60c0860182611597565b5060e083015184820360e08601526116578282611552565b9150508091505092915050565b600061167083836115a6565b905092915050565b6000602082019050919050565b6000611690826114b1565b61169a81856114bc565b9350836020820285016116ac856114cd565b8060005b858110156116e857848403895281516116c98582611664565b94506116d483611678565b925060208a019950506001810190506116b0565b50829750879550505050505092915050565b600060208201905081810360008301526117148184611685565b905092915050565b6000602082840312156117325761173161139a565b5b600061174084828501611403565b91505092915050565b600080604083850312156117605761175f61139a565b5b600061176e85828601611403565b925050602061177f85828601611403565b9150509250929050565b611792816113e2565b82525050565b60006020820190506117ad6000830184611789565b92915050565b600080fd5b600080fd5b7f4e487b7100000000000000000000000000000000000000000000000000000000600052604160045260246000fd5b6117f582611541565b810181811067ffffffffffffffff82111715611814576118136117bd565b5b80604052505050565b6000611827611390565b905061183382826117ec565b919050565b600067ffffffffffffffff821115611853576118526117bd565b5b61185c82611541565b9050602081019050919050565b82818337600083830152505050565b600061188b61188684611838565b61181d565b9050828152602081018484840111156118a7576118a66117b8565b5b6118b2848285611869565b509392505050565b600082601f8301126118cf576118ce6117b3565b5b81356118df848260208601611878565b91505092915050565b600080600080600060a086880312156119045761190361139a565b5b6000611912888289016113cd565b955050602086013567ffffffffffffffff8111156119335761193261139f565b5b61193f888289016118ba565b945050604086013567ffffffffffffffff8111156119605761195f61139f565b5b61196c888289016118ba565b935050606061197d88828901611403565b925050608086013567ffffffffffffffff81111561199e5761199d61139f565b5b6119aa888289016118ba565b9150509295509295909350565b6119c0816113a4565b82525050565b600082825260208201905092915050565b60006119e2826114fb565b6119ec81856119c6565b93506119fc818560208601611517565b611a0581611541565b840191505092915050565b611a198161158b565b82525050565b600061010082019050611a35600083018b611789565b611a42602083018a6119b7565b8181036040830152611a5481896119d7565b90508181036060830152611a6881886119d7565b9050611a776080830187611789565b611a8460a0830186611789565b611a9160c0830185611a10565b81810360e0830152611aa381846119d7565b90509998505050505050505050565b6000819050919050565b611ac581611ab2565b8114611ad057600080fd5b50565b600081359050611ae281611abc565b92915050565b600060208284031215611afe57611afd61139a565b5b6000611b0c84828501611ad3565b91505092915050565b6000602082019050611b2a6000830184611a10565b92915050565b7f496e76616c6964204c616e642049640000000000000000000000000000000000600082015250565b6000611b66600f836119c6565b9150611b7182611b30565b602082019050919050565b60006020820190508181036000830152611b9581611b59565b9050919050565b7f4e487b7100000000000000000000000000000000000000000000000000000000600052603260045260246000fd5b7f4f6e6c79206c616e64206f776e65722063616e207472616e736665722074686560008201527f206f776e65727368697000000000000000000000000000000000000000000000602082015250565b6000611c27602a836119c6565b9150611c3282611bcb565b604082019050919050565b60006020820190508181036000830152611c5681611c1a565b9050919050565b7f43616e6e6f74207472616e7366657220746f207a65726f206164647265737300600082015250565b6000611c93601f836119c6565b9150611c9e82611c5d565b602082019050919050565b60006020820190508181036000830152611cc281611c86565b9050919050565b7f4f776e61626c653a2063616c6c6572206973206e6f7420746865206f776e6572600082015250565b6000611cff6020836119c6565b9150611d0a82611cc9565b602082019050919050565b60006020820190508181036000830152611d2e81611cf2565b9050919050565b7f4e487b7100000000000000000000000000000000000000000000000000000000600052602260045260246000fd5b60006002820490506001821680611d7c57607f821691505b602082108103611d8f57611d8e611d35565b5b50919050565b7f4c616e64206e6f7420666f722073616c65000000000000000000000000000000600082015250565b6000611dcb6011836119c6565b9150611dd682611d95565b602082019050919050565b60006020820190508181036000830152611dfa81611dbe565b9050919050565b7f496e73756666696369656e742066756e64730000000000000000000000000000600082015250565b6000611e376012836119c6565b9150611e4282611e01565b602082019050919050565b60006020820190508181036000830152611e6681611e2a565b9050919050565b7f596f7520616c7265616479206f776e2074686973206c616e6400000000000000600082015250565b6000611ea36019836119c6565b9150611eae82611e6d565b602082019050919050565b60006020820190508181036000830152611ed281611e96565b9050919050565b600081905092915050565b50565b6000611ef4600083611ed9565b9150611eff82611ee4565b600082019050919050565b6000611f1582611ee7565b9150819050919050565b7f5472616e73616374696f6e206661696c65640000000000000000000000000000600082015250565b6000611f556012836119c6565b9150611f6082611f1f565b602082019050919050565b60006020820190508181036000830152611f8481611f48565b9050919050565b7f4e6f7420746865206c616e64206f776e65720000000000000000000000000000600082015250565b6000611fc16012836119c6565b9150611fcc82611f8b565b602082019050919050565b60006020820190508181036000830152611ff081611fb4565b9050919050565b7f4f6e6c7920476f76742063616e20726567697374657200000000000000000000600082015250565b600061202d6016836119c6565b915061203882611ff7565b602082019050919050565b6000602082019050818103600083015261205c81612020565b9050919050565b600081905092915050565b6000612079826114fb565b6120838185612063565b9350612093818560208601611517565b80840191505092915050565b60006120ab828561206e565b91506120b7828461206e565b91508190509392505050565b7f4c616e642061742074686973206c6f636174696f6e20616c726561647920726560008201527f6769737465726564000000000000000000000000000000000000000000000000602082015250565b600061211f6028836119c6565b915061212a826120c3565b604082019050919050565b6000602082019050818103600083015261214e81612112565b9050919050565b60008190508160005260206000209050919050565b60006020601f8301049050919050565b600082821b905092915050565b6000600883026121b77fffffffffffffffffffffffffffffffffffffffffffffffffffffffffffffffff8261217a565b6121c1868361217a565b95508019841693508086168417925050509392505050565b6000819050919050565b60006121fe6121f96121f4846113e2565b6121d9565b6113e2565b9050919050565b6000819050919050565b612218836121e3565b61222c61222482612205565b848454612187565b825550505050565b600090565b612241612234565b61224c81848461220f565b505050565b5b8181101561227057612265600082612239565b600181019050612252565b5050565b601f8211156122b55761228681612155565b61228f8461216a565b8101602085101561229e578190505b6122b26122aa8561216a565b830182612251565b50505b505050565b600082821c905092915050565b60006122d8600019846008026122ba565b1980831691505092915050565b60006122f183836122c7565b9150826002028217905092915050565b61230a826114fb565b67ffffffffffffffff811115612323576123226117bd565b5b61232d8254611d64565b612338828285612274565b600060209050601f83116001811461236b5760008415612359578287015190505b61236385826122e5565b8655506123cb565b601f19841661237986612155565b60005b828110156123a15784890151825560018201915060208501945060208101905061237c565b868310156123be57848901516123ba601f8916826122c7565b8355505b6001600288020188555050505b505050505050565b7f4e487b7100000000000000000000000000000000000000000000000000000000600052601160045260246000fd5b600061240d826113e2565b91507fffffffffffffffffffffffffffffffffffffffffffffffffffffffffffffffff820361243f5761243e6123d3565b5b600182019050919050565b7f4f776e61626c653a206e6577206f776e657220697320746865207a65726f206160008201527f6464726573730000000000000000000000000000000000000000000000000000602082015250565b60006124a66026836119c6565b91506124b18261244a565b604082019050919050565b600060208201905081810360008301526124d581612499565b905091905056fea26469706673582212209d77324e8a87f82023e2aab5df4ed04d97550ab31e0b9bbfcee4d48242589fda64736f6c634300081c0033",
  "linkReferences": {},
  "deployedLinkReferences": {}
}